:02000000AC0052
:02000100BF201E
:02000200A40355
:02000300B5A0A6
:02000400A81B37
:02000500BA102F
:02000600960062
:02000700A4084B
:02000800B5A0A1
:02000900A81C31
:02000A00BA102A
:02000B0096005D
:02000C00A480CE
:02000D00B5013B
:02000E00A81D2B
:02000F00BA1025
:02001000960058
:02001100A40841
:02001200A81E26
:02001300BA1021
:02001400960054
:02001500A40441
:02001600A81F21
:02001700BA101D
:02001800960050
:02001900A4023F
:02001A00A8201C
:02001B00BA1019
:02001C0096004C
:02001D00A4013C
:02001E00A82117
:02001F00BA1015
:02002000960048
:02002100A40039
:02002200B5A186
:02002300A82211
:02002400BA1010
:02002500960043
:02002600A40034
:02002700B5FF23
:02002800A8230B
:02002900BA100B
:02002A0096003E
:02002B00A4022D
:02002C00B5FF1E
:02002D00A82405
:02002E00BA1006
:02002F00960039
:02003000B4001A
:02003100F16973
:02003200AFFD20
:020033009B0030
:02003400970132
:02003500930234
:02003600A42202
:02003700B51002
:02003800850041
:02003900A8021B
:02003A0006407E
:02003B00A822F9
:02003C00BA10F8
:02003D008A0037
:02003E00AFFF12
:02003F00970028
:02004000A40218
:02004100098034
:02004200870035
:02004300AF010B
:020044008A0030
:02004500AFFF0B
:02004600970021
:02004700A41DF6
:02004800B510F1
:02004900850030
:02004A0004446C
:02004B00098129
:02004C0087002B
:02004D00AF0101
:02004E00990017
:02004F00A826E1
:02005000BA10E4
:020051008A0023
:02005200AFFFFE
:02005300970014
:02005400A40105
:02005500098020
:02005600870021
:02005700AF01F7
:02005800A426DC
:02005900B510E0
:02005A0099000B
:02005B00A81CDF
:02005C00BA10D8
:02005D008A0017
:02005E00A426D6
:02005F00B510DA
:02006000850019
:02006100960007
:02006200B400E8
:02006300F9643E
:02006400830215
:02006500870111
:020066008B000D
:02006700AF01E7
:02006800100680
:02006900A400F1
:02006A00A826C6
:02006B00BA10C9
:02006C009600FC
:02006D00A424C9
:02006E00B510CB
:02006F0085000A
:02007000AFFFE0
:020071009700F6
:02007200B400D8
:02007300A932B0
:02007400870003
:02007500AF01D9
:020076009900EF
:02007700A422C1
:02007800B510C1
:02007900850000
:02007A00A8805C
:02007B00BAF1D8
:02007C009900E9
:02007D00A422BB
:02007E00B510BB
:02007F008500FA
:02008000A801D5
:02008100064037
:02008200A8FADA
:02008300BA03BE
:020084009900E1
:02008500A422B3
:02008600B510B3
:020087008500F2
:02008800A802CC
:0200890006402F
:02008A00A822AA
:02008B00BA10A9
:02008C008A00E8
:02008D00AFFFC3
:02008E009700D9
:02008F00A402C9
:020090000980E5
:020091008700E6
:02009200AF01BC
:020093008A00E1
:02009400AFFFBC
:020095009700D2
:02009600A41EA6
:02009700B510A2
:020098008500E1
:0200990004441D
:02009A000884D8
:02009B000981D9
:02009C000884D6
:02009D008700DA
:02009E00AF01B0
:02009F00AFFFB1
:0200A0009700C7
:0200A100A42099
:0200A200B51097
:0200A3008500D6
:0200A400044412
:0200A5000884CD
:0200A6000981CE
:0200A7000884CB
:0200A8008700CF
:0200A900AF01A5
:0200AA00AFFFA6
:0200AB009700BC
:0200AC00A4218D
:0200AD00B5108C
:0200AE008500CB
:0200AF00044407
:0200B0000884C2
:0200B1000981C3
:0200B2000884C0
:0200B3008700C4
:0200B400AF019A
:0200B5009900B0
:0200B600A42381
:0200B700B51082
:0200B8008500C1
:0200B900A8019C
:0200BA009900AB
:0200BB00A41C83
:0200BC00B5107D
:0200BD008500BC
:0200BE00A82672
:0200BF00BA1075
:0200C0008A00B4
:0200C1009900A4
:0200C200A40197
:0200C300A1009A
:0200C400B40185
:0200C500E1C890
:0200C600B40183
:0200C700F1C284
:0200C80010071F
:00000001FF
